:020000040000FA
:04000000FEEF3FF0E0
:1006000000000F0EC16E896A806A8A6A816A926AE6
:10061000010E936E81A00FEF03F011EF03F00AEFCC
:1006200003F0820E026EDE0EE82EFED7022EFCD7FD
:1006300081A01DEF03F01FEF03F00AEF03F001505C
:10064000D8A425EF03F027EF03F02AEF03F0012AE7
:100650002DEF03F001500124016E040E016433EF0D
:1006600003F035EF03F037EF03F0010E016E01C028
:1006700089FF81B03EEF03F040EF03F039EF03F064
:100680000AEF03F0FEEF3FF0016A000101EF03F013
:047FFC0044EF03F05B
:020000040020DA
:08000000FFFFFFFFFFFFFFFF00
:020000040030CA
:0E000000FF081F1EFF8381FF0FC00FE00F409F
:00000001FF
