:020000040000FA
:0400000015EF00F008
:020004000000FA
:08000800460E156E6F0E146E1A
:1000100000000000000000000000142EF9D7152E8B
:10002000F5D722802070F29210000F0EC16E956AF3
:100030008C6A9380D09EF28EF292F288206A216AB6
:10004000226A22A008D020B002D0216A03D0216AFF
:10005000100E2126226A20B015D021C08CFF460E3A
:10006000156E6F0E146E000000000000000000000E
:10007000142EF9D7152EF5D7200E2126D8A001D0A1
:10008000216ADFD721C08CFF8C0E156E6F0E146EA7
:1000900000000000000000000000142EF9D7152E0B
:1000A000F5D78C0E156E6F0E146E00000000000068
:1000B00000000000142EF9D7152EF5D7200E2126AA
:0C00C000D8A003D0216A100E2126BBD767
:020000040030CA
:0100010008F6
:010002001FDE
:010003001EDE
:010005008377
:010006008178
:010008000FE8
:01000900C036
:01000A000FE6
:01000B00E014
:01000C000FE4
:01000D0040B2
:00000001FF
